:100000000C942A000C9452020C9447000C94470064
:100010000C9447000C9447000C9492040C944700F5
:100020000C9447000C9447000C9447000C944A042D
:100030000C9447000C9447000C9447000C94470024
:100040000C9447000C9447000C9447000C94470014
:100050000C94470011241FBECFE5D8E0DEBFCDBF12
:1000600010E0A0E6B0E0EEEBF9E002C005900D92E2
:10007000A637B107D9F710E0A6E7B0E001C01D929E
:10008000A138B107E1F70E94DA010C94DD040C9469
:100090000000813049F0813028F0823039F083301F
:1000A00041F406C06ABB089567BB089564BB089518
:1000B00061BB0895813049F0813028F0823039F0F9
:1000C000833041F406C06BBB089562BB089565BBE5
:1000D000089562BB0895683008F072C04130B1F5F0
:1000E000813099F0813030F08230D1F0833009F0E6
:1000F00067C021C02AB381E090E002C0880F991F39
:100100006A95E2F7282B2ABB089527B381E090E097
:1001100002C0880F991F6A95E2F7282B27BB089524
:1001200024B381E090E002C0880F991F6A95E2F73E
:10013000282B24BB089521B381E090E002C0880FF2
:10014000991F6A95E2F7282B21BB08954423C1F536
:10015000813099F0813028F08230D9F0833081F5F8
:1001600024C02AB381E090E002C0880F991F6A95ED
:10017000E2F7809582238ABB089527B381E090E05F
:1001800002C0880F991F6A95E2F78095822387BB8A
:10019000089524B381E090E002C0880F991F6A950A
:1001A000E2F78095822384BB089521B381E090E03B
:1001B00002C0880F991F6A95E2F78095822381BB60
:1001C0000895683008F072C04130B1F5813099F07F
:1001D000813030F08230D1F0833009F067C021C027
:1001E0002BB381E090E002C0880F991F6A95E2F777
:1001F000282B2BBB089528B381E090E002C0880F24
:10020000991F6A95E2F7282B28BB089525B381E052
:1002100090E002C0880F991F6A95E2F7282B25BB52
:10022000089522B381E090E002C0880F991F6A957B
:10023000E2F7282B22BB08954423C1F5813099F0C1
:10024000813028F08230D9F0833081F524C02BB37F
:1002500081E090E002C0880F991F6A95E2F78095CF
:1002600082238BBB089528B381E090E002C0880F01
:10027000991F6A95E2F78095822388BB089525B37C
:1002800081E090E002C0880F991F6A95E2F780959F
:10029000822385BB089522B381E090E002C0880FDD
:1002A000991F6A95E2F78095822382BB0895813079
:1002B00049F0813028F0823039F08330B1F40DC03C
:1002C00089B303C086B301C083B390E002C09595A3
:1002D00087956A95E2F78170089580B390E002C037
:1002E000959587956A95E2F781700895813091F030
:1002F000813028F08230C9F0833061F521C02BB302
:1003000081E090E002C0880F991F6A95E2F72827E4
:100310002BBB089528B381E090E002C0880F991F9D
:100320006A95E2F7282728BB089525B381E090E07D
:1003300002C0880F991F6A95E2F7282725BB089508
:1003400022B381E090E002C0880F991F6A95E2F71E
:10035000282722BB08958FB780688FBF08958FB775
:100360008F778FBF089580917A008F5F80937A0096
:10037000813019F40E947D040895823051F40E9466
:100380008704909377008093760081E00E94380282
:100390000895833071F40E94870420917600309193
:1003A0007700821B930B90937900809378000E94D2
:1003B0003402089583E062E040E00E946B0083E035
:1003C00062E040E00E94E10081E063E041E00E94E1
:1003D0006B0081E063E040E00E94E1000E94DE03E8
:1003E0000E9421040E94710483EB91E00E944B0261
:1003F0000E9429020E94AB018091760090917700C3
:10040000892B31F48091780090917900892BA1F3A8
:1004100080E060E00E94F90280E690E00E94C5035F
:10042000609178007091790080E090E00E942B0349
:1004300081E060E00E94F90288E690E00E94C50336
:10044000609176007091770080E090E00E942B032D
:10045000D3CF85B7816085BF85B7826085BF08959A
:100460008BB780648BBF08958BB78F7B8BBF08954C
:10047000882319F0813071F407C085B7816085BF8A
:1004800085B78D7F85BF089585B7816085BF85B7A6
:10049000826085BF0895009721F090937C0080933F
:1004A0007B0008951F920F920FB60F9211242F9385
:1004B0003F934F935F936F937F938F939F93AF93EC
:1004C000BF93EF93FF93E0917B00F0917C0009953F
:1004D000FF91EF91BF91AF919F918F917F916F911C
:1004E0005F914F913F912F910F900FBE0F901F90F2
:1004F00018951F93182F80E062E040E00E94E10011
:10050000412F441F4427441F81E064E00E94E10022
:10051000412F429546954695417081E062E00E94E8
:10052000E100412F42954695417081E061E00E94D3
:10053000E100412F4295417081E060E00E94E100BE
:1005400080E062E041E00E94E10080EA9FE00197E4
:10055000F1F780E062E040E00E94E1008CE291E08F
:1005600020E931E0F9013197F1F70197D9F7412FEF
:10057000469546954695417081E064E00E94E10011
:10058000412F46954695417081E062E00E94E1006E
:10059000412F4695417081E061E00E94E1001170B9
:1005A00081E060E0412F0E94E10080E062E041E0F4
:1005B0000E94E10080EA9FE00197F1F780E062E0AD
:1005C00040E00E94E10080E69AEE0197F1F71F916A
:1005D00008951F93182F80E063E040E00E94E1003F
:1005E000812F0E9479021F91089581E00E94E90203
:1005F0000895DF93CF9300D000D0CDB7DEB7198236
:1006000090E49A8394E19B8394E59C836058FE0177
:10061000E80FF11D8181860F0E94E9020F900F9073
:100620000F900F90CF91DF9108951F93182F862F71
:100630000E94F902812F0E9479021F9108951F9351
:10064000182F80E063E041E00E94E100812F0E94CA
:1006500079021F9108958F929F92AF92BF92CF928D
:10066000DF92EF92FF920F93DF93CF93CDB7DEB778
:100670002A970FB6F894DEBF0FBECDBFAC01CB01F9
:10068000DA016C017D0100E04E010894811C911C8F
:100690005401A00EB11CC701B6012AE030E040E0D1
:1006A00050E00E94BB04605DF5016083C701B601A4
:1006B0002AE030E040E050E00E94BB04C901DA01CA
:1006C0006C017D010F5FC114D104E104F10401F755
:1006D00007C0FE01E00FF11D80810E941F03015041
:1006E0000023B9F72A960FB6F894DEBF0FBECDBF30
:1006F000CF91DF910F91FF90EF90DF90CF90BF905F
:10070000AF909F908F900895EF92FF920F931F9359
:10071000E82E862F0E94F902FF2400E010E0C801B5
:10072000B7010E942B031F910F91FF90EF90089546
:10073000DF92EF92FF920F931F93CF93DF938C0181
:10074000F62EE42ED22E862F880F880F880F805C1D
:100750000E94E902C0E0D0E0F801EC0FFD1F8081AB
:100760000E941F032196C830D105B1F78E2D6D2D43
:100770000E94F9028F2D0E941F03DF91CF911F91DC
:100780000F91FF90EF90DF900895CF93DF93EC01EE
:1007900002C00E941F0389918823D9F7DF91CF916E
:1007A00008950F931F93162F042F0E94C503812FC6
:1007B000602F0E94F9021F910F9108950F931F93CC
:1007C0008CE291E020E931E0F9013197F1F70197EE
:1007D000D9F780E063E041E00E946B0080E062E0D6
:1007E00041E00E946B0081E060E041E00E946B000C
:1007F00081E061E041E00E946B0081E062E041E065
:100800000E946B0081E064E041E00E946B0082E0A6
:100810000E94E90288E20E94E90200E41FE1C801A7
:100820000197F1F78CE00E94E902C8010197F1F706
:1008300081E00E94E902C8010197F1F71F910F9131
:10084000089583B7806483BF83B7886083BF83B70D
:10085000806283BF83B78F7E83BF80E48CBF83B702
:100860008E7F83BF83B7826083BF83B78B7F83BF55
:10087000089583B78E7F83BF83B78D7F83BF83B790
:100880008B7F83BF0895009721F090937E00809323
:100890007D0008951F920F920FB60F9211242F938F
:1008A0003F934F935F936F937F938F939F93AF93F8
:1008B000BF93EF93FF93E0917D00F0917E00099547
:1008C000FF91EF91BF91AF919F918F917F916F9128
:1008D0005F914F913F912F910F900FBE0F901F90FE
:1008E00018958EB58E7F8EBD8EB582608EBD8EB50D
:1008F0008B7F8EBD1EBC1DBC08951EBC1DBC089503
:100900009CBD8BBD089526B537B5C90108952DB599
:100910003EB5C9010895009721F09093800080931F
:100920007F0008951F920F920FB60F9211242F93FC
:100930003F934F935F936F937F938F939F93AF9367
:10094000BF93EF93FF93E0917F00F0918000309789
:1009500009F00995FF91EF91BF91AF919F918F9110
:100960007F916F915F914F913F912F910F900FBEAB
:100970000F901F901895A1E21A2EAA1BBB1BFD0118
:100980000DC0AA1FBB1FEE1FFF1FA217B307E4076E
:10099000F50720F0A21BB30BE40BF50B661F771FC6
:1009A000881F991F1A9469F76095709580959095A6
:0E09B0009B01AC01BD01CF010895F894FFCF6B
:1009BE00547C6F6E203D2000547C706572696F64AC
:0609CE0031203D20000075
:00000001FF
