:100000000C942A000C9434000C9434000C943400AA
:100010000C9434000C9434000C9434000C94340090
:100020000C9434000C9434000C9434000C94340080
:100030000C9434000C9434000C9434000C94340070
:100040000C9434000C9434000C9434000C94340060
:100050000C94340011241FBECFE5D8E0DEBFCDBF25
:100060000E9440030C948C030C940000813049F0F2
:10007000813028F0823039F0833041F406C06ABB09
:10008000089567BB089564BB089561BB08958130EE
:1000900049F0813028F0823039F0833041F406C0D5
:1000A0006BBB089562BB089565BB089562BB08955C
:1000B000683008F072C04130B1F5813099F081307C
:1000C00030F08230D1F0833009F067C021C02AB30C
:1000D00081E090E002C0880F991F6A95E2F7282B13
:1000E0002ABB089527B381E090E002C0880F991FD2
:1000F0006A95E2F7282B27BB089524B381E090E0AE
:1001000002C0880F991F6A95E2F7282B24BB089537
:1001100021B381E090E002C0880F991F6A95E2F751
:10012000282B21BB08954423C1F5813099F08130FB
:1001300028F08230D9F0833081F524C02AB381E0E1
:1001400090E002C0880F991F6A95E2F7809582239C
:100150008ABB089527B381E090E002C0880F991F01
:100160006A95E2F78095822387BB089524B381E0E6
:1001700090E002C0880F991F6A95E2F7809582236C
:1001800084BB089521B381E090E002C0880F991FDD
:100190006A95E2F78095822381BB0895683008F064
:1001A00072C04130B1F5813099F0813030F0823049
:1001B000D1F0833009F067C021C02BB381E090E01B
:1001C00002C0880F991F6A95E2F7282B2BBB089570
:1001D00028B381E090E002C0880F991F6A95E2F78A
:1001E000282B28BB089525B381E090E002C0880F3A
:1001F000991F6A95E2F7282B25BB089522B381E069
:1002000090E002C0880F991F6A95E2F7282B22BB65
:1002100008954423C1F5813099F0813028F082306F
:10022000D9F0833081F524C02BB381E090E002C087
:10023000880F991F6A95E2F7809582238BBB0895FA
:1002400028B381E090E002C0880F991F6A95E2F719
:100250008095822388BB089525B381E090E002C099
:10026000880F991F6A95E2F78095822385BB0895D0
:1002700022B381E090E002C0880F991F6A95E2F7EF
:100280008095822382BB0895813049F0813028F027
:10029000823039F08330B1F40DC089B303C086B326
:1002A00001C083B390E002C0959587956A95E2F707
:1002B0008170089580B390E002C0959587956A9506
:1002C000E2F781700895813091F0813028F082301A
:1002D000C9F0833061F521C02BB381E090E002C00A
:1002E000880F991F6A95E2F728272BBB089528B33A
:1002F00081E090E002C0880F991F6A95E2F72827F5
:1003000028BB089525B381E090E002C0880F991FB3
:100310006A95E2F7282725BB089522B381E090E093
:1003200002C0880F991F6A95E2F7282722BB08951B
:100330001F93182F80E062E040E00E94CE00412F22
:10034000441F4427441F81E064E00E94CE00412FF7
:10035000429546954695417081E062E00E94CE004C
:10036000412F42954695417081E061E00E94CE00A8
:10037000412F4295417081E060E00E94CE0080E014
:1003800062E041E00E94CE0080EA9FE00197F1F731
:1003900080E062E040E00E94CE008CE291E020E943
:1003A00031E0F9013197F1F70197D9F7412F4695DF
:1003B00046954695417081E064E00E94CE00412F51
:1003C00046954695417081E062E00E94CE00412F43
:1003D0004695417081E061E00E94CE00117081E09D
:1003E00060E0412F0E94CE0080E062E041E00E9488
:1003F000CE0080EA9FE00197F1F780E062E040E004
:100400000E94CE0080E69AEE0197F1F71F910895C1
:100410001F93182F80E063E040E00E94CE00812F00
:100420000E9498011F91089581E00E94080208959A
:10043000DF93CF9300D000D0CDB7DEB7198290E420
:100440009A8394E19B8394E59C836058FE01E80FB6
:10045000F11D8181860F0E9408020F900F900F906E
:100460000F90CF91DF9108951F93182F862F0E9430
:100470001802812F0E9498011F9108951F93182F31
:1004800080E063E041E00E94CE00812F0E9498014D
:100490001F9108958F929F92AF92BF92CF92DF9259
:1004A000EF92FF920F93DF93CF93CDB7DEB72A97EA
:1004B0000FB6F894DEBF0FBECDBFAC01CB01DA01A1
:1004C0006C017D0100E04E010894811C911C5401D7
:1004D000A00EB11CC701B6012AE030E040E050E0B8
:1004E0000E946A03605DF5016083C701B6012AE0DE
:1004F00030E040E050E00E946A03C901DA016C017B
:100500007D010F5FC114D104E104F10401F707C0BC
:10051000FE01E00FF11D80810E943E020150002388
:10052000B9F72A960FB6F894DEBF0FBECDBFCF91B4
:10053000DF910F91FF90EF90DF90CF90BF90AF9041
:100540009F908F900895EF92FF920F931F93E82E44
:10055000862F0E941802FF2400E010E0C801B701B6
:100560000E944A021F910F91FF90EF900895DF9231
:10057000EF92FF920F931F93CF93DF938C01F62E90
:10058000E42ED22E862F880F880F880F805C0E9461
:100590000802C0E0D0E0F801EC0FFD1F80810E944E
:1005A0003E022196C830D105B1F78E2D6D2D0E94E7
:1005B00018028F2D0E943E02DF91CF911F910F9163
:1005C000FF90EF90DF900895CF93DF93EC0102C08E
:1005D0000E943E0289918823D9F7DF91CF91089537
:1005E0000F931F93162F042F0E94E402812F602F78
:1005F0000E9418021F910F9108950F931F938CE290
:1006000091E020E931E0F9013197F1F70197D9F74D
:1006100080E063E041E00E94580080E062E041E059
:100620000E94580081E060E041E00E94580081E0B3
:1006300061E041E00E94580081E062E041E00E94F8
:10064000580081E064E041E00E94580082E00E948E
:10065000080288E20E94080200E41FE1C801019735
:10066000F1F78CE00E940802C8010197F1F781E0E0
:100670000E940802C8010197F1F71F910F91089598
:100680000E9449030E94FD020E9466030E943E02EE
:10069000FBCF80B5806880BD549A539A5698529883
:1006A00083E889B986E080BD08955D9BFECF8CB953
:1006B000089520E004C05D9BFECFECB92F5FFC01E4
:1006C000E20FF11DE081EE23B1F708955F9BFECFAD
:1006D0008CB10895A1E21A2EAA1BBB1BFD010DC00F
:1006E000AA1FBB1FEE1FFF1FA217B307E407F507E2
:1006F00020F0A21BB30BE40BF50B661F771F881FBE
:10070000991F1A9469F760957095809590959B0153
:0C071000AC01BD01CF010895F894FFCFAB
:00000001FF
