:100000000C942A000C9447000C9447000C94470071
:100010000C9447000C9447000C9447000C94470044
:100020000C9447000C9447000C9447000C94470034
:100030000C9447000C9447000C9447000C94F10179
:100040000C9447000C9447000C9447000C94470014
:100050000C94470011241FBECFE5D8E0DEBFCDBF12
:1000600010E0A0E6B0E0ECE4F4E002C005900D92F0
:10007000A236B107D9F710E0A2E6B0E001C01D92A8
:10008000A636B107E1F70E94AB010C9424020C9450
:100090000000813049F0813028F0823039F083301F
:1000A00041F406C06ABB089567BB089564BB089518
:1000B00061BB0895813049F0813028F0823039F0F9
:1000C000833041F406C06BBB089562BB089565BBE5
:1000D000089562BB0895683008F072C04130B1F5F0
:1000E000813099F0813030F08230D1F0833009F0E6
:1000F00067C021C02AB381E090E002C0880F991F39
:100100006A95E2F7282B2ABB089527B381E090E097
:1001100002C0880F991F6A95E2F7282B27BB089524
:1001200024B381E090E002C0880F991F6A95E2F73E
:10013000282B24BB089521B381E090E002C0880FF2
:10014000991F6A95E2F7282B21BB08954423C1F536
:10015000813099F0813028F08230D9F0833081F5F8
:1001600024C02AB381E090E002C0880F991F6A95ED
:10017000E2F7809582238ABB089527B381E090E05F
:1001800002C0880F991F6A95E2F78095822387BB8A
:10019000089524B381E090E002C0880F991F6A950A
:1001A000E2F78095822384BB089521B381E090E03B
:1001B00002C0880F991F6A95E2F78095822381BB60
:1001C0000895683008F072C04130B1F5813099F07F
:1001D000813030F08230D1F0833009F067C021C027
:1001E0002BB381E090E002C0880F991F6A95E2F777
:1001F000282B2BBB089528B381E090E002C0880F24
:10020000991F6A95E2F7282B28BB089525B381E052
:1002100090E002C0880F991F6A95E2F7282B25BB52
:10022000089522B381E090E002C0880F991F6A957B
:10023000E2F7282B22BB08954423C1F5813099F0C1
:10024000813028F08230D9F0833081F524C02BB37F
:1002500081E090E002C0880F991F6A95E2F78095CF
:1002600082238BBB089528B381E090E002C0880F01
:10027000991F6A95E2F78095822388BB089525B37C
:1002800081E090E002C0880F991F6A95E2F780959F
:10029000822385BB089522B381E090E002C0880FDD
:1002A000991F6A95E2F78095822382BB0895813079
:1002B00049F0813028F0823039F08330B1F40DC03C
:1002C00089B303C086B301C083B390E002C09595A3
:1002D00087956A95E2F78170089580B390E002C037
:1002E000959587956A95E2F781700895813091F030
:1002F000813028F08230C9F0833061F521C02BB302
:1003000081E090E002C0880F991F6A95E2F72827E4
:100310002BBB089528B381E090E002C0880F991F9D
:100320006A95E2F7282728BB089525B381E090E07D
:1003300002C0880F991F6A95E2F7282725BB089508
:1003400022B381E090E002C0880F991F6A95E2F71E
:10035000282722BB08950E94B10181E40E94BD01BB
:10036000FFCF80B5806880BD549A539A56985298B2
:1003700083E389B986E080BD08955D9BFECF8CB98B
:100380000895009761F020E004C05D9BFECFECB9BA
:100390002F5FFC01E20FF11DE081EE23B1F708951C
:1003A0005F9BFECF8CB10895CF93DF93EC0190E07B
:1003B000E92FF0E0DE01AE0FBF1F8C9180839F5FBD
:1003C0006917B0F750936400409363008091620016
:1003D000C80FD11D88818CB9559A81E0DF91CF91EA
:1003E00008951F920F920FB60F9211242F933F93EF
:1003F0004F935F936F937F938F939F93AF93BF932D
:10040000EF93FF9310926000809162008F5F809362
:10041000620090916500891731F4E0916300F091DA
:10042000640009955598FF91EF91BF91AF919F910D
:100430008F917F916F915F914F913F912F910F908D
:0C0440000FBE0F901F901895F894FFCF8E
:02044C000100AD
:00000001FF
