:100000000C942A000C9434000C9434000C943400AA
:100010000C9434000C9434000C9434000C94340090
:100020000C9434000C9434000C9434000C94340080
:100030000C9434000C9434000C9434000C94340070
:100040000C9434000C9434000C9434000C94340060
:100050000C94340011241FBECFE5D8E0DEBFCDBF25
:100060000E94A4010C94C9010C940000813049F055
:10007000813028F0823039F0833041F406C06ABB09
:10008000089567BB089564BB089561BB08958130EE
:1000900049F0813028F0823039F0833041F406C0D5
:1000A0006BBB089562BB089565BB089562BB08955C
:1000B000683008F072C04130B1F5813099F081307C
:1000C00030F08230D1F0833009F067C021C02AB30C
:1000D00081E090E002C0880F991F6A95E2F7282B13
:1000E0002ABB089527B381E090E002C0880F991FD2
:1000F0006A95E2F7282B27BB089524B381E090E0AE
:1001000002C0880F991F6A95E2F7282B24BB089537
:1001100021B381E090E002C0880F991F6A95E2F751
:10012000282B21BB08954423C1F5813099F08130FB
:1001300028F08230D9F0833081F524C02AB381E0E1
:1001400090E002C0880F991F6A95E2F7809582239C
:100150008ABB089527B381E090E002C0880F991F01
:100160006A95E2F78095822387BB089524B381E0E6
:1001700090E002C0880F991F6A95E2F7809582236C
:1001800084BB089521B381E090E002C0880F991FDD
:100190006A95E2F78095822381BB0895683008F064
:1001A00072C04130B1F5813099F0813030F0823049
:1001B000D1F0833009F067C021C02BB381E090E01B
:1001C00002C0880F991F6A95E2F7282B2BBB089570
:1001D00028B381E090E002C0880F991F6A95E2F78A
:1001E000282B28BB089525B381E090E002C0880F3A
:1001F000991F6A95E2F7282B25BB089522B381E069
:1002000090E002C0880F991F6A95E2F7282B22BB65
:1002100008954423C1F5813099F0813028F082306F
:10022000D9F0833081F524C02BB381E090E002C087
:10023000880F991F6A95E2F7809582238BBB0895FA
:1002400028B381E090E002C0880F991F6A95E2F719
:100250008095822388BB089525B381E090E002C099
:10026000880F991F6A95E2F78095822385BB0895D0
:1002700022B381E090E002C0880F991F6A95E2F7EF
:100280008095822382BB0895813049F0813028F027
:10029000823039F08330B1F40DC089B303C086B326
:1002A00001C083B390E002C0959587956A95E2F707
:1002B0008170089580B390E002C0959587956A9506
:1002C000E2F781700895813091F0813028F082301A
:1002D000C9F0833061F521C02BB381E090E002C00A
:1002E000880F991F6A95E2F728272BBB089528B33A
:1002F00081E090E002C0880F991F6A95E2F72827F5
:1003000028BB089525B381E090E002C0880F991FB3
:100310006A95E2F7282725BB089522B381E090E093
:1003200002C0880F991F6A95E2F7282722BB08951B
:10033000689A6C9A6E9A08956C986E9A08958FB91F
:10034000779BFECF8FB10895CF93DF9381E066E076
:1003500040E00E94580081E065E041E00E945800C2
:1003600081E067E041E00E94580081E064E041E004
:100370000E94CE000E949801C8ECD0E081E00E946B
:100380009F0180E197E2FE013197F1F70197D9F7DC
:06039000F5CFF894FFCF49
:00000001FF
